:100000000C9462000C948A000C948A000C948A0070
:100010000C948A000C948A000C948A000C948A0038
:100020000C948A000C948A000C948A000C948A0028
:100030000C948A000C948A000C948A000C948A0018
:100040000C947E020C948A000C944C020C942602B0
:100050000C948A000C948A000C948A000C948A00F8
:100060000C948A000C948A000000000023002600F3
:10007000290000000008000201000003040700003E
:1000800000000000000000000000250028002B00F8
:1000900000000000240027002A00040404040404D3
:1000A0000404020202020202030303030303010227
:1000B00004081020408001020408102001020408F6
:1000C0001020C80211241FBECFEFD8E0DEBFCDBF85
:1000D00011E0A0E0B1E0EEE0F8E002C005900D9282
:1000E000A431B107D9F721E0A4E1B1E001C01D922C
:1000F000AE3BB207E1F710E0C2E6D0E004C02197C2
:10010000FE010E94FF03C136D107C9F70E94FF021A
:100110000C9405040C940000AF92BF92CF92DF9232
:10012000EF92FF920F931F93CF93DF936C017B01AC
:100130008B01040F151FEB015E01AE18BF08C0173D
:10014000D10759F06991D601ED91FC910190F081B0
:10015000E02DC6010995892B79F7C501DF91CF9173
:100160001F910F91FF90EF90DF90CF90BF90AF90D5
:100170000895FC01538D448D252F30E0842F90E0AD
:10018000821B930B541710F0CF9608950197089592
:10019000FC01918D828D981761F0A28DAE0FBF2F5B
:1001A000B11D5D968C91928D9F5F9F73928F90E0B1
:1001B00008958FEF9FEF0895FC01918D828D981720
:1001C00031F0828DE80FF11D858D90E008958FEF5D
:1001D0009FEF0895FC01918D228D892F90E0805C26
:1001E0009F4F821B91098F73992708958DE191E0AC
:1001F0000E94EA0021E0892B09F420E0822F089573
:1002000080E090E0892B29F00E94F60081110C9487
:1002100000000895FC01A48DA80FB92FB11DA35AA9
:10022000BF4F2C91848D90E001968F739927848F16
:10023000A689B7892C93A089B1898C918370806439
:100240008C93938D848D981306C00288F389E02DDA
:1002500080818F7D80830895EF92FF920F931F938B
:10026000CF93DF93EC0181E0888F9B8D8C8D981369
:100270001AC0E889F989808185FF15C09FB7F89475
:10028000EE89FF896083E889F989808183708064C1
:1002900080839FBF81E090E0DF91CF911F910F910C
:1002A000FF90EF900895F62E0B8D10E00F5F1F4F1B
:1002B0000F731127E02E8C8D8E110CC00FB607FC2A
:1002C000FACFE889F989808185FFF5CFCE010E94B8
:1002D0000A01F1CFEB8DEC0FFD2FF11DE35AFF4F1B
:1002E000F0829FB7F8940B8FEA89FB898081806246
:1002F000CFCFCF93DF93EC01888D8823B9F0AA8903
:10030000BB89E889F9898C9185FD03C0808186FDD0
:100310000DC00FB607FCF7CF8C9185FFF2CF80811F
:1003200085FFEDCFCE010E940A01E9CFDF91CF9189
:100330000895833081F028F4813099F08230A9F05B
:1003400008958730A9F08830C9F08430B1F48091E5
:1003500080008F7D03C0809180008F778093800024
:10036000089584B58F7784BD089584B58F7DFBCFC4
:100370008091B0008F778093B00008958091B00095
:100380008F7DF9CF2FB7F8946091190170911A0100
:1003900080911B0190911C012FBF0895CF92DF9295
:1003A000EF92FF920F931F93CF93DF932FE7C22E0D
:1003B00020E0D22EF60184913BEBE32E30E0F32EC9
:1003C000F7010491C7EAD0E0FE011491112309F46A
:1003D00038C081110E949901E12FF0E0EE0FFF1F5C
:1003E000E859FF4FA591B4918C91082391E080E0EA
:1003F00009F490E0092F182FF6018491F701E49099
:10040000FE01C491CC23A1F081110E949901EC2F2F
:10041000F0E0EE0FFF1FEA57FF4FA591B4918FB7A1
:10042000F8949C91012B81F0E094E922EC928FBF2B
:10043000DF91CF911F910F91FF90EF90DF90CF90C0
:10044000089510E000E0D8CFE92AF0CF1F920F9274
:100450000FB60F9211242F933F934F935F936F9397
:100460007F938F939F93AF93BF93EF93FF938DE110
:1004700091E00E940A01FF91EF91BF91AF919F918E
:100480008F917F916F915F914F913F912F910F903D
:100490000FBE0F901F9018951F920F920FB60F92DC
:1004A00011242F938F939F93EF93FF93E0912D014E
:1004B000F0912E018081E0913301F091340182FDB1
:1004C0001BC09081809136018F5F8F73209137011F
:1004D000821741F0E0913601F0E0E35EFE4F958F28
:1004E00080933601FF91EF919F918F912F910F9003
:1004F0000FBE0F901F9018958081F4CF1F920F921E
:100500000FB60F9211242F933F938F939F93AF9326
:10051000BF938091190190911A01A0911B01B09194
:100520001C013091180123E0230F2D3758F5019657
:10053000A11DB11D209318018093190190931A01F8
:10054000A0931B01B0931C0180911401909115019F
:10055000A0911601B09117010196A11DB11D8093C4
:10056000140190931501A0931601B0931701BF9148
:10057000AF919F918F913F912F910F900FBE0F9050
:100580001F90189526E8230F0296A11DB11DD2CF0A
:10059000EDE1F1E01382128288EE93E0A0E0B0E09A
:1005A00084839583A683B78386E091E091838083DB
:1005B00085EC90E09587848784EC90E09787868728
:1005C00080EC90E0918B808B81EC90E0938B828B20
:1005D00082EC90E0958B848B86EC90E0978B868BF9
:1005E000118E128E138E148E0E94C2016093BA0176
:1005F0007093BB018093BC019093BD0108957894E2
:1006000084B5826084BD84B5816084BD85B5826017
:1006100085BD85B5816085BD80916E0081608093C8
:100620006E00109281008091810082608093810031
:100630008091810081608093810080918000816041
:10064000809380008091B10084608093B10080919C
:10065000B00081608093B00080917A0084608093C4
:100660007A0080917A00826080937A0080917A008B
:10067000816080937A0080917A00806880937A000C
:100680001092C100EBEBF0E02491E7EAF0E08491F6
:10069000882399F090E0880F991FFC01E057FF4FE5
:1006A000A591B491FC01EA57FF4F859194918FB7C2
:1006B000F894EC91E22BEC938FBFE0912D01F09137
:1006C0002E0182E08083E0912901F0912A011082BD
:1006D000E0912B01F0912C018FEC80831092350179
:1006E000E0913101F091320186E08083E0912F01A9
:1006F000F0913001808180618083E0912F01F09141
:100700003001808188608083E0912F01F091300179
:10071000808180688083E0912F01F0913001808199
:100720008F7D808380E4F82EC4EFD1E000E010E0FC
:10073000F0927C0080917A00806480937A008091AE
:100740007A0086FDFCCF909178008091790089270E
:10075000982789278C9F90018D9F300D9C9F300D8D
:100760001124223E374744F50E94C20180900001C7
:1007700090900101092C000CAA08BB084090BA0116
:100780005090BB016090BC017090BD016419750967
:1007900086099709681579058A059B0520F10E944D
:1007A000CE010E94C2016093BA017093BB01809395
:1007B000BC019093BD0117C0D0930101C09300010B
:1007C0000E94C2018090BA019090BB01A090BC0130
:1007D000B090BD01681979098A099B09643F71408D
:1007E00081059105E0F60115110509F4A1CF0E94DC
:1007F000F600882309F49CCF0E94000099CFEE0FE9
:0E080000FF1F0590F491E02D0994F894FFCFAE
:10080E00FA00000000002C018C00B9007901EA000A
:04081E00C800DC0032
:00000001FF
